{
  "contractName": "CertificateRegistry",
  "abi": [
    {
      "inputs": [],
      "stateMutability": "nonpayable",
      "type": "constructor"
    },
    {
      "inputs": [
        {
          "internalType": "string",
          "name": "",
          "type": "string"
        }
      ],
      "name": "registry",
      "outputs": [
        {
          "internalType": "address",
          "name": "issuer",
          "type": "address"
        },
        {
          "internalType": "address",
          "name": "holder",
          "type": "address"
        },
        {
          "internalType": "string",
          "name": "signature",
          "type": "string"
        },
        {
          "internalType": "string",
          "name": "state",
          "type": "string"
        },
        {
          "internalType": "string",
          "name": "name",
          "type": "string"
        }
      ],
      "stateMutability": "view",
      "type": "function"
    },
    {
      "inputs": [
        {
          "internalType": "address",
          "name": "_holder",
          "type": "address"
        },
        {
          "internalType": "string",
          "name": "_signature",
          "type": "string"
        },
        {
          "internalType": "string",
          "name": "_state",
          "type": "string"
        },
        {
          "internalType": "string",
          "name": "_hash",
          "type": "string"
        },
        {
          "internalType": "string",
          "name": "_name",
          "type": "string"
        }
      ],
      "name": "addCertificate",
      "outputs": [],
      "stateMutability": "nonpayable",
      "type": "function"
    },
    {
      "inputs": [
        {
          "internalType": "string",
          "name": "_hash",
          "type": "string"
        }
      ],
      "name": "removeCertificate",
      "outputs": [],
      "stateMutability": "nonpayable",
      "type": "function"
    },
    {
      "inputs": [
        {
          "internalType": "string",
          "name": "_hash",
          "type": "string"
        }
      ],
      "name": "getCertificate",
      "outputs": [
        {
          "internalType": "address",
          "name": "",
          "type": "address"
        },
        {
          "internalType": "address",
          "name": "",
          "type": "address"
        },
        {
          "internalType": "string",
          "name": "",
          "type": "string"
        },
        {
          "internalType": "string",
          "name": "",
          "type": "string"
        },
        {
          "internalType": "string",
          "name": "",
          "type": "string"
        }
      ],
      "stateMutability": "view",
      "type": "function"
    },
    {
      "inputs": [
        {
          "internalType": "string",
          "name": "_hash",
          "type": "string"
        },
        {
          "internalType": "string",
          "name": "_state",
          "type": "string"
        }
      ],
      "name": "modifyState",
      "outputs": [],
      "stateMutability": "nonpayable",
      "type": "function"
    }
  ],
  "bytecode": "0x6080604052348015600e575f80fd5b503360015f6101000a81548173ffffffffffffffffffffffffffffffffffffffff021916908373ffffffffffffffffffffffffffffffffffffffff1602179055506111e38061005c5f395ff3fe608060405234801561000f575f80fd5b5060043610610055575f3560e01c8063546a16d51461005957806383ef549d1461007557806392a296c914610091578063ad8ee43f146100c5578063ed0f2e75146100e1575b5f80fd5b610073600480360381019061006e9190610b50565b610115565b005b61008f600480360381019061008a9190610bf1565b61025f565b005b6100ab60048036038101906100a69190610b50565b61043a565b6040516100bc959493929190610d47565b60405180910390f35b6100df60048036038101906100da9190610dad565b610653565b005b6100fb60048036038101906100f69190610b50565b610714565b60405161010c959493929190610d47565b60405180910390f35b803373ffffffffffffffffffffffffffffffffffffffff165f8260405161013c9190610e5d565b90815260200160405180910390206001015f9054906101000a900473ffffffffffffffffffffffffffffffffffffffff1673ffffffffffffffffffffffffffffffffffffffff16146101c3576040517f08c379a00000000000000000000000000000000000000000000000000000000081526004016101ba90610ebd565b60405180910390fd5b5f826040516101d29190610e5d565b90815260200160405180910390205f8082015f6101000a81549073ffffffffffffffffffffffffffffffffffffffff0219169055600182015f6101000a81549073ffffffffffffffffffffffffffffffffffffffff0219169055600282015f61023b91906109ab565b600382015f61024a91906109ab565b600482015f61025991906109ab565b50505050565b60015f9054906101000a900473ffffffffffffffffffffffffffffffffffffffff1673ffffffffffffffffffffffffffffffffffffffff163373ffffffffffffffffffffffffffffffffffffffff16146102ee576040517f08c379a00000000000000000000000000000000000000000000000000000000081526004016102e590610ebd565b60405180910390fd5b845f836040516102fe9190610e5d565b90815260200160405180910390206001015f6101000a81548173ffffffffffffffffffffffffffffffffffffffff021916908373ffffffffffffffffffffffffffffffffffffffff160217905550335f8360405161035c9190610e5d565b90815260200160405180910390205f015f6101000a81548173ffffffffffffffffffffffffffffffffffffffff021916908373ffffffffffffffffffffffffffffffffffffffff160217905550835f836040516103b99190610e5d565b908152602001604051809103902060020190816103d691906110de565b50825f836040516103e79190610e5d565b9081526020016040518091039020600301908161040491906110de565b50805f836040516104159190610e5d565b9081526020016040518091039020600401908161043291906110de565b505050505050565b5f818051602081018201805184825260208301602085012081835280955050505050505f91509050805f015f9054906101000a900473ffffffffffffffffffffffffffffffffffffffff1690806001015f9054906101000a900473ffffffffffffffffffffffffffffffffffffffff16908060020180546104ba90610f08565b80601f01602080910402602001604051908101604052809291908181526020018280546104e690610f08565b80156105315780601f1061050857610100808354040283529160200191610531565b820191905f5260205f20905b81548152906001019060200180831161051457829003601f168201915b50505050509080600301805461054690610f08565b80601f016020809104026020016040519081016040528092919081815260200182805461057290610f08565b80156105bd5780601f10610594576101008083540402835291602001916105bd565b820191905f5260205f20905b8154815290600101906020018083116105a057829003601f168201915b5050505050908060040180546105d290610f08565b80601f01602080910402602001604051908101604052809291908181526020018280546105fe90610f08565b80156106495780601f1061062057610100808354040283529160200191610649565b820191905f5260205f20905b81548152906001019060200180831161062c57829003601f168201915b5050505050905085565b60015f9054906101000a900473ffffffffffffffffffffffffffffffffffffffff1673ffffffffffffffffffffffffffffffffffffffff163373ffffffffffffffffffffffffffffffffffffffff16146106e2576040517f08c379a00000000000000000000000000000000000000000000000000000000081526004016106d990610ebd565b60405180910390fd5b805f836040516106f29190610e5d565b9081526020016040518091039020600301908161070f91906110de565b505050565b5f8060608060605f8660405161072a9190610e5d565b90815260200160405180910390206001015f9054906101000a900473ffffffffffffffffffffffffffffffffffffffff165f8760405161076a9190610e5d565b90815260200160405180910390205f015f9054906101000a900473ffffffffffffffffffffffffffffffffffffffff165f886040516107a99190610e5d565b90815260200160405180910390206002015f896040516107c99190610e5d565b90815260200160405180910390206003015f8a6040516107e99190610e5d565b908152602001604051809103902060040182805461080690610f08565b80601f016020809104026020016040519081016040528092919081815260200182805461083290610f08565b801561087d5780601f106108545761010080835404028352916020019161087d565b820191905f5260205f20905b81548152906001019060200180831161086057829003601f168201915b5050505050925081805461089090610f08565b80601f01602080910402602001604051908101604052809291908181526020018280546108bc90610f08565b80156109075780601f106108de57610100808354040283529160200191610907565b820191905f5260205f20905b8154815290600101906020018083116108ea57829003601f168201915b5050505050915080805461091a90610f08565b80601f016020809104026020016040519081016040528092919081815260200182805461094690610f08565b80156109915780601f1061096857610100808354040283529160200191610991565b820191905f5260205f20905b81548152906001019060200180831161097457829003601f168201915b505050505090509450945094509450945091939590929450565b5080546109b790610f08565b5f825580601f106109c857506109e5565b601f0160209004905f5260205f20908101906109e491906109e8565b5b50565b5b808211156109ff575f815f9055506001016109e9565b5090565b5f604051905090565b5f80fd5b5f80fd5b5f80fd5b5f80fd5b5f601f19601f8301169050919050565b7f4e487b71000000000000000000000000000000000000000000000000000000005f52604160045260245ffd5b610a6282610a1c565b810181811067ffffffffffffffff82111715610a8157610a80610a2c565b5b80604052505050565b5f610a93610a03565b9050610a9f8282610a59565b919050565b5f67ffffffffffffffff821115610abe57610abd610a2c565b5b610ac782610a1c565b9050602081019050919050565b828183375f83830152505050565b5f610af4610aef84610aa4565b610a8a565b905082815260208101848484011115610b1057610b0f610a18565b5b610b1b848285610ad4565b509392505050565b5f82601f830112610b3757610b36610a14565b5b8135610b47848260208601610ae2565b91505092915050565b5f60208284031215610b6557610b64610a0c565b5b5f82013567ffffffffffffffff811115610b8257610b81610a10565b5b610b8e84828501610b23565b91505092915050565b5f73ffffffffffffffffffffffffffffffffffffffff82169050919050565b5f610bc082610b97565b9050919050565b610bd081610bb6565b8114610bda575f80fd5b50565b5f81359050610beb81610bc7565b92915050565b5f805f805f60a08688031215610c0a57610c09610a0c565b5b5f610c1788828901610bdd565b955050602086013567ffffffffffffffff811115610c3857610c37610a10565b5b610c4488828901610b23565b945050604086013567ffffffffffffffff811115610c6557610c64610a10565b5b610c7188828901610b23565b935050606086013567ffffffffffffffff811115610c9257610c91610a10565b5b610c9e88828901610b23565b925050608086013567ffffffffffffffff811115610cbf57610cbe610a10565b5b610ccb88828901610b23565b9150509295509295909350565b610ce181610bb6565b82525050565b5f81519050919050565b5f82825260208201905092915050565b8281835e5f83830152505050565b5f610d1982610ce7565b610d238185610cf1565b9350610d33818560208601610d01565b610d3c81610a1c565b840191505092915050565b5f60a082019050610d5a5f830188610cd8565b610d676020830187610cd8565b8181036040830152610d798186610d0f565b90508181036060830152610d8d8185610d0f565b90508181036080830152610da18184610d0f565b90509695505050505050565b5f8060408385031215610dc357610dc2610a0c565b5b5f83013567ffffffffffffffff811115610de057610ddf610a10565b5b610dec85828601610b23565b925050602083013567ffffffffffffffff811115610e0d57610e0c610a10565b5b610e1985828601610b23565b9150509250929050565b5f81905092915050565b5f610e3782610ce7565b610e418185610e23565b9350610e51818560208601610d01565b80840191505092915050565b5f610e688284610e2d565b915081905092915050565b7f4163636573732044656e696564000000000000000000000000000000000000005f82015250565b5f610ea7600d83610cf1565b9150610eb282610e73565b602082019050919050565b5f6020820190508181035f830152610ed481610e9b565b9050919050565b7f4e487b71000000000000000000000000000000000000000000000000000000005f52602260045260245ffd5b5f6002820490506001821680610f1f57607f821691505b602082108103610f3257610f31610edb565b5b50919050565b5f819050815f5260205f209050919050565b5f6020601f8301049050919050565b5f82821b905092915050565b5f60088302610f947fffffffffffffffffffffffffffffffffffffffffffffffffffffffffffffffff82610f59565b610f9e8683610f59565b95508019841693508086168417925050509392505050565b5f819050919050565b5f819050919050565b5f610fe2610fdd610fd884610fb6565b610fbf565b610fb6565b9050919050565b5f819050919050565b610ffb83610fc8565b61100f61100782610fe9565b848454610f65565b825550505050565b5f90565b611023611017565b61102e818484610ff2565b505050565b5b81811015611051576110465f8261101b565b600181019050611034565b5050565b601f8211156110965761106781610f38565b61107084610f4a565b8101602085101561107f578190505b61109361108b85610f4a565b830182611033565b50505b505050565b5f82821c905092915050565b5f6110b65f198460080261109b565b1980831691505092915050565b5f6110ce83836110a7565b9150826002028217905092915050565b6110e782610ce7565b67ffffffffffffffff811115611100576110ff610a2c565b5b61110a8254610f08565b611115828285611055565b5f60209050601f831160018114611146575f8415611134578287015190505b61113e85826110c3565b8655506111a5565b601f19841661115486610f38565b5f5b8281101561117b57848901518255600182019150602085019450602081019050611156565b868310156111985784890151611194601f8916826110a7565b8355505b6001600288020188555050505b50505050505056fea2646970667358221220ff1d071fbba5aba8235e6bea59886e6a46dabb16ea4fada6a65719c9c79811e064736f6c634300081a0033",
  "immutableReferences": {},
  "source": "// SPDX-License-Identifier: UNLICENSED\r\npragma solidity ^0.8.20;\r\n\r\ncontract CertificateRegistry{\r\n    mapping (string => Certification) public registry;\r\n    struct Certification{\r\n        address issuer;\r\n        address holder;\r\n        string signature;\r\n        string state;\r\n        string name;\r\n    }\r\n    modifier onlyHolder(string memory hash){\r\n        require(registry[hash].holder==msg.sender,\"Access Denied\");\r\n        _;\r\n    }\r\n    address owner;\r\n    constructor(){\r\n        owner=msg.sender;\r\n    }\r\n    modifier onlyIssuer(){\r\n        require(msg.sender==owner,\"Access Denied\");\r\n        _;\r\n    }\r\n    function addCertificate(address _holder,\r\n        string memory _signature,\r\n        string memory _state,\r\n        string memory _hash,\r\n        string memory _name) public onlyIssuer{\r\n        registry[_hash].holder=_holder;\r\n        registry[_hash].issuer=msg.sender;\r\n        registry[_hash].signature=_signature;\r\n        registry[_hash].state=_state;\r\n        registry[_hash].name=_name;\r\n    }\r\n\r\n    function removeCertificate(string memory _hash) onlyHolder(_hash) public{\r\n        delete registry[_hash];\r\n    }\r\n\r\n    function getCertificate(string memory _hash) public view returns(\r\n        address,\r\n        address,\r\n        string memory,\r\n        string memory,\r\n        string memory\r\n    ){\r\n        return (registry[_hash].holder,\r\n        registry[_hash].issuer,\r\n        registry[_hash].signature,\r\n        registry[_hash].state,\r\n        registry[_hash].name);\r\n    }\r\n\r\n    function modifyState(string memory _hash,string memory _state) onlyIssuer() public{\r\n        registry[_hash].state=_state;\r\n    }\r\n\r\n}",
  "sourcePath": "C:\\Users\\xxr98\\Desktop\\6771\\COMP6453-Passport-ZKP\\contracts\\contracts\\CertificateRegistry.sol",
  "compiler": {
    "name": "solc",
    "version": "0.8.26+commit.8a97fa7a.Emscripten.clang"
  },
  "schemaVersion": "3.4.16",
  "updatedAt": "2024-07-14T13:09:03.226Z",
  "devdoc": {
    "kind": "dev",
    "methods": {},
    "version": 1
  },
  "userdoc": {
    "kind": "user",
    "methods": {},
    "version": 1
  }
}