{
  "contractName": "NFT",
  "abi": [
    {
      "inputs": [],
      "stateMutability": "nonpayable",
      "type": "constructor"
    },
    {
      "inputs": [
        {
          "internalType": "address",
          "name": "sender",
          "type": "address"
        },
        {
          "internalType": "uint256",
          "name": "tokenId",
          "type": "uint256"
        },
        {
          "internalType": "address",
          "name": "owner",
          "type": "address"
        }
      ],
      "name": "ERC721IncorrectOwner",
      "type": "error"
    },
    {
      "inputs": [
        {
          "internalType": "address",
          "name": "operator",
          "type": "address"
        },
        {
          "internalType": "uint256",
          "name": "tokenId",
          "type": "uint256"
        }
      ],
      "name": "ERC721InsufficientApproval",
      "type": "error"
    },
    {
      "inputs": [
        {
          "internalType": "address",
          "name": "approver",
          "type": "address"
        }
      ],
      "name": "ERC721InvalidApprover",
      "type": "error"
    },
    {
      "inputs": [
        {
          "internalType": "address",
          "name": "operator",
          "type": "address"
        }
      ],
      "name": "ERC721InvalidOperator",
      "type": "error"
    },
    {
      "inputs": [
        {
          "internalType": "address",
          "name": "owner",
          "type": "address"
        }
      ],
      "name": "ERC721InvalidOwner",
      "type": "error"
    },
    {
      "inputs": [
        {
          "internalType": "address",
          "name": "receiver",
          "type": "address"
        }
      ],
      "name": "ERC721InvalidReceiver",
      "type": "error"
    },
    {
      "inputs": [
        {
          "internalType": "address",
          "name": "sender",
          "type": "address"
        }
      ],
      "name": "ERC721InvalidSender",
      "type": "error"
    },
    {
      "inputs": [
        {
          "internalType": "uint256",
          "name": "tokenId",
          "type": "uint256"
        }
      ],
      "name": "ERC721NonexistentToken",
      "type": "error"
    },
    {
      "anonymous": false,
      "inputs": [
        {
          "indexed": true,
          "internalType": "address",
          "name": "owner",
          "type": "address"
        },
        {
          "indexed": true,
          "internalType": "address",
          "name": "approved",
          "type": "address"
        },
        {
          "indexed": true,
          "internalType": "uint256",
          "name": "tokenId",
          "type": "uint256"
        }
      ],
      "name": "Approval",
      "type": "event"
    },
    {
      "anonymous": false,
      "inputs": [
        {
          "indexed": true,
          "internalType": "address",
          "name": "owner",
          "type": "address"
        },
        {
          "indexed": true,
          "internalType": "address",
          "name": "operator",
          "type": "address"
        },
        {
          "indexed": false,
          "internalType": "bool",
          "name": "approved",
          "type": "bool"
        }
      ],
      "name": "ApprovalForAll",
      "type": "event"
    },
    {
      "anonymous": false,
      "inputs": [
        {
          "indexed": true,
          "internalType": "address",
          "name": "from",
          "type": "address"
        },
        {
          "indexed": true,
          "internalType": "address",
          "name": "to",
          "type": "address"
        },
        {
          "indexed": true,
          "internalType": "uint256",
          "name": "tokenId",
          "type": "uint256"
        }
      ],
      "name": "Transfer",
      "type": "event"
    },
    {
      "inputs": [
        {
          "internalType": "address",
          "name": "to",
          "type": "address"
        },
        {
          "internalType": "uint256",
          "name": "tokenId",
          "type": "uint256"
        }
      ],
      "name": "approve",
      "outputs": [],
      "stateMutability": "nonpayable",
      "type": "function"
    },
    {
      "inputs": [
        {
          "internalType": "address",
          "name": "owner",
          "type": "address"
        }
      ],
      "name": "balanceOf",
      "outputs": [
        {
          "internalType": "uint256",
          "name": "",
          "type": "uint256"
        }
      ],
      "stateMutability": "view",
      "type": "function",
      "constant": true
    },
    {
      "inputs": [],
      "name": "currentTokenId",
      "outputs": [
        {
          "internalType": "uint256",
          "name": "",
          "type": "uint256"
        }
      ],
      "stateMutability": "view",
      "type": "function",
      "constant": true
    },
    {
      "inputs": [
        {
          "internalType": "uint256",
          "name": "tokenId",
          "type": "uint256"
        }
      ],
      "name": "getApproved",
      "outputs": [
        {
          "internalType": "address",
          "name": "",
          "type": "address"
        }
      ],
      "stateMutability": "view",
      "type": "function",
      "constant": true
    },
    {
      "inputs": [
        {
          "internalType": "address",
          "name": "owner",
          "type": "address"
        },
        {
          "internalType": "address",
          "name": "operator",
          "type": "address"
        }
      ],
      "name": "isApprovedForAll",
      "outputs": [
        {
          "internalType": "bool",
          "name": "",
          "type": "bool"
        }
      ],
      "stateMutability": "view",
      "type": "function",
      "constant": true
    },
    {
      "inputs": [],
      "name": "name",
      "outputs": [
        {
          "internalType": "string",
          "name": "",
          "type": "string"
        }
      ],
      "stateMutability": "view",
      "type": "function",
      "constant": true
    },
    {
      "inputs": [
        {
          "internalType": "uint256",
          "name": "tokenId",
          "type": "uint256"
        }
      ],
      "name": "ownerOf",
      "outputs": [
        {
          "internalType": "address",
          "name": "",
          "type": "address"
        }
      ],
      "stateMutability": "view",
      "type": "function",
      "constant": true
    },
    {
      "inputs": [
        {
          "internalType": "address",
          "name": "from",
          "type": "address"
        },
        {
          "internalType": "address",
          "name": "to",
          "type": "address"
        },
        {
          "internalType": "uint256",
          "name": "tokenId",
          "type": "uint256"
        }
      ],
      "name": "safeTransferFrom",
      "outputs": [],
      "stateMutability": "nonpayable",
      "type": "function"
    },
    {
      "inputs": [
        {
          "internalType": "address",
          "name": "from",
          "type": "address"
        },
        {
          "internalType": "address",
          "name": "to",
          "type": "address"
        },
        {
          "internalType": "uint256",
          "name": "tokenId",
          "type": "uint256"
        },
        {
          "internalType": "bytes",
          "name": "data",
          "type": "bytes"
        }
      ],
      "name": "safeTransferFrom",
      "outputs": [],
      "stateMutability": "nonpayable",
      "type": "function"
    },
    {
      "inputs": [
        {
          "internalType": "address",
          "name": "operator",
          "type": "address"
        },
        {
          "internalType": "bool",
          "name": "approved",
          "type": "bool"
        }
      ],
      "name": "setApprovalForAll",
      "outputs": [],
      "stateMutability": "nonpayable",
      "type": "function"
    },
    {
      "inputs": [
        {
          "internalType": "bytes4",
          "name": "interfaceId",
          "type": "bytes4"
        }
      ],
      "name": "supportsInterface",
      "outputs": [
        {
          "internalType": "bool",
          "name": "",
          "type": "bool"
        }
      ],
      "stateMutability": "view",
      "type": "function",
      "constant": true
    },
    {
      "inputs": [],
      "name": "symbol",
      "outputs": [
        {
          "internalType": "string",
          "name": "",
          "type": "string"
        }
      ],
      "stateMutability": "view",
      "type": "function",
      "constant": true
    },
    {
      "inputs": [
        {
          "internalType": "address",
          "name": "from",
          "type": "address"
        },
        {
          "internalType": "address",
          "name": "to",
          "type": "address"
        },
        {
          "internalType": "uint256",
          "name": "tokenId",
          "type": "uint256"
        }
      ],
      "name": "transferFrom",
      "outputs": [],
      "stateMutability": "nonpayable",
      "type": "function"
    },
    {
      "inputs": [
        {
          "internalType": "address",
          "name": "recipient",
          "type": "address"
        }
      ],
      "name": "mintTo",
      "outputs": [
        {
          "internalType": "uint256",
          "name": "",
          "type": "uint256"
        }
      ],
      "stateMutability": "payable",
      "type": "function",
      "payable": true
    },
    {
      "inputs": [
        {
          "internalType": "uint256",
          "name": "id",
          "type": "uint256"
        }
      ],
      "name": "tokenURI",
      "outputs": [
        {
          "internalType": "string",
          "name": "",
          "type": "string"
        }
      ],
      "stateMutability": "view",
      "type": "function",
      "constant": true
    }
  ],
  "bytecode": "0x608060405234801561000f575f80fd5b506040518060400160405280601481526020017f43657274696669636174652072656769737472790000000000000000000000008152506040518060400160405280600381526020017f4346520000000000000000000000000000000000000000000000000000000000815250815f908161008a91906102dc565b50806001908161009a91906102dc565b5050506103ab565b5f81519050919050565b7f4e487b71000000000000000000000000000000000000000000000000000000005f52604160045260245ffd5b7f4e487b71000000000000000000000000000000000000000000000000000000005f52602260045260245ffd5b5f600282049050600182168061011d57607f821691505b6020821081036101305761012f6100d9565b5b50919050565b5f819050815f5260205f209050919050565b5f6020601f8301049050919050565b5f82821b905092915050565b5f600883026101927fffffffffffffffffffffffffffffffffffffffffffffffffffffffffffffffff82610157565b61019c8683610157565b95508019841693508086168417925050509392505050565b5f819050919050565b5f819050919050565b5f6101e06101db6101d6846101b4565b6101bd565b6101b4565b9050919050565b5f819050919050565b6101f9836101c6565b61020d610205826101e7565b848454610163565b825550505050565b5f90565b610221610215565b61022c8184846101f0565b505050565b5b8181101561024f576102445f82610219565b600181019050610232565b5050565b601f8211156102945761026581610136565b61026e84610148565b8101602085101561027d578190505b61029161028985610148565b830182610231565b50505b505050565b5f82821c905092915050565b5f6102b45f1984600802610299565b1980831691505092915050565b5f6102cc83836102a5565b9150826002028217905092915050565b6102e5826100a2565b67ffffffffffffffff8111156102fe576102fd6100ac565b5b6103088254610106565b610313828285610253565b5f60209050601f831160018114610344575f8415610332578287015190505b61033c85826102c1565b8655506103a3565b601f19841661035286610136565b5f5b8281101561037957848901518255600182019150602085019450602081019050610354565b868310156103965784890151610392601f8916826102a5565b8355505b6001600288020188555050505b505050505050565b611ddc806103b85f395ff3fe6080604052600436106100e6575f3560e01c80636352211e11610089578063a22cb46511610058578063a22cb46514610300578063b88d4fde14610328578063c87b56dd14610350578063e985e9c51461038c576100e6565b80636352211e1461022e57806370a082311461026a578063755edd17146102a657806395d89b41146102d6576100e6565b8063081812fc116100c5578063081812fc1461017a578063095ea7b3146101b657806323b872dd146101de57806342842e0e14610206576100e6565b80629a9b7b146100ea57806301ffc9a71461011457806306fdde0314610150575b5f80fd5b3480156100f5575f80fd5b506100fe6103c8565b60405161010b9190611622565b60405180910390f35b34801561011f575f80fd5b5061013a600480360381019061013591906116a1565b6103ce565b60405161014791906116e6565b60405180910390f35b34801561015b575f80fd5b506101646104af565b604051610171919061176f565b60405180910390f35b348015610185575f80fd5b506101a0600480360381019061019b91906117b9565b61053e565b6040516101ad9190611823565b60405180910390f35b3480156101c1575f80fd5b506101dc60048036038101906101d79190611866565b610559565b005b3480156101e9575f80fd5b5061020460048036038101906101ff91906118a4565b61056f565b005b348015610211575f80fd5b5061022c600480360381019061022791906118a4565b61066e565b005b348015610239575f80fd5b50610254600480360381019061024f91906117b9565b61068d565b6040516102619190611823565b60405180910390f35b348015610275575f80fd5b50610290600480360381019061028b91906118f4565b61069e565b60405161029d9190611622565b60405180910390f35b6102c060048036038101906102bb91906118f4565b610754565b6040516102cd9190611622565b60405180910390f35b3480156102e1575f80fd5b506102ea61077f565b6040516102f7919061176f565b60405180910390f35b34801561030b575f80fd5b5061032660048036038101906103219190611949565b61080f565b005b348015610333575f80fd5b5061034e60048036038101906103499190611ab3565b610825565b005b34801561035b575f80fd5b50610376600480360381019061037191906117b9565b610842565b604051610383919061176f565b60405180910390f35b348015610397575f80fd5b506103b260048036038101906103ad9190611b33565b610854565b6040516103bf91906116e6565b60405180910390f35b60065481565b5f7f80ac58cd000000000000000000000000000000000000000000000000000000007bffffffffffffffffffffffffffffffffffffffffffffffffffffffff1916827bffffffffffffffffffffffffffffffffffffffffffffffffffffffff1916148061049857507f5b5e139f000000000000000000000000000000000000000000000000000000007bffffffffffffffffffffffffffffffffffffffffffffffffffffffff1916827bffffffffffffffffffffffffffffffffffffffffffffffffffffffff1916145b806104a857506104a7826108e2565b5b9050919050565b60605f80546104bd90611b9e565b80601f01602080910402602001604051908101604052809291908181526020018280546104e990611b9e565b80156105345780601f1061050b57610100808354040283529160200191610534565b820191905f5260205f20905b81548152906001019060200180831161051757829003601f168201915b5050505050905090565b5f6105488261094b565b50610552826109d1565b9050919050565b61056b8282610566610a0a565b610a11565b5050565b5f73ffffffffffffffffffffffffffffffffffffffff168273ffffffffffffffffffffffffffffffffffffffff16036105df575f6040517f64a0ae920000000000000000000000000000000000000000000000000000000081526004016105d69190611823565b60405180910390fd5b5f6105f283836105ed610a0a565b610a23565b90508373ffffffffffffffffffffffffffffffffffffffff168173ffffffffffffffffffffffffffffffffffffffff1614610668578382826040517f64283d7b00000000000000000000000000000000000000000000000000000000815260040161065f93929190611bce565b60405180910390fd5b50505050565b61068883838360405180602001604052805f815250610825565b505050565b5f6106978261094b565b9050919050565b5f8073ffffffffffffffffffffffffffffffffffffffff168273ffffffffffffffffffffffffffffffffffffffff160361070f575f6040517f89c62b640000000000000000000000000000000000000000000000000000000081526004016107069190611823565b60405180910390fd5b60035f8373ffffffffffffffffffffffffffffffffffffffff1673ffffffffffffffffffffffffffffffffffffffff1681526020019081526020015f20549050919050565b5f8060065f815461076490611c30565b91905081905590506107768382610c2e565b80915050919050565b60606001805461078e90611b9e565b80601f01602080910402602001604051908101604052809291908181526020018280546107ba90611b9e565b80156108055780601f106107dc57610100808354040283529160200191610805565b820191905f5260205f20905b8154815290600101906020018083116107e857829003601f168201915b5050505050905090565b61082161081a610a0a565b8383610c4b565b5050565b61083084848461056f565b61083c84848484610db4565b50505050565b606061084d82610f66565b9050919050565b5f60055f8473ffffffffffffffffffffffffffffffffffffffff1673ffffffffffffffffffffffffffffffffffffffff1681526020019081526020015f205f8373ffffffffffffffffffffffffffffffffffffffff1673ffffffffffffffffffffffffffffffffffffffff1681526020019081526020015f205f9054906101000a900460ff16905092915050565b5f7f01ffc9a7000000000000000000000000000000000000000000000000000000007bffffffffffffffffffffffffffffffffffffffffffffffffffffffff1916827bffffffffffffffffffffffffffffffffffffffffffffffffffffffff1916149050919050565b5f8061095683611030565b90505f73ffffffffffffffffffffffffffffffffffffffff168173ffffffffffffffffffffffffffffffffffffffff16036109c857826040517f7e2732890000000000000000000000000000000000000000000000000000000081526004016109bf9190611622565b60405180910390fd5b80915050919050565b5f60045f8381526020019081526020015f205f9054906101000a900473ffffffffffffffffffffffffffffffffffffffff169050919050565b5f33905090565b610a1e8383836001611069565b505050565b5f80610a2e84611030565b90505f73ffffffffffffffffffffffffffffffffffffffff168373ffffffffffffffffffffffffffffffffffffffff1614610a6f57610a6e818486611228565b5b5f73ffffffffffffffffffffffffffffffffffffffff168173ffffffffffffffffffffffffffffffffffffffff1614610afa57610aae5f855f80611069565b600160035f8373ffffffffffffffffffffffffffffffffffffffff1673ffffffffffffffffffffffffffffffffffffffff1681526020019081526020015f205f82825403925050819055505b5f73ffffffffffffffffffffffffffffffffffffffff168573ffffffffffffffffffffffffffffffffffffffff1614610b7957600160035f8773ffffffffffffffffffffffffffffffffffffffff1673ffffffffffffffffffffffffffffffffffffffff1681526020019081526020015f205f82825401925050819055505b8460025f8681526020019081526020015f205f6101000a81548173ffffffffffffffffffffffffffffffffffffffff021916908373ffffffffffffffffffffffffffffffffffffffff160217905550838573ffffffffffffffffffffffffffffffffffffffff168273ffffffffffffffffffffffffffffffffffffffff167fddf252ad1be2c89b69c2b068fc378daa952ba7f163c4a11628f55a4df523b3ef60405160405180910390a4809150509392505050565b610c47828260405180602001604052805f8152506112eb565b5050565b5f73ffffffffffffffffffffffffffffffffffffffff168273ffffffffffffffffffffffffffffffffffffffff1603610cbb57816040517f5b08ba18000000000000000000000000000000000000000000000000000000008152600401610cb29190611823565b60405180910390fd5b8060055f8573ffffffffffffffffffffffffffffffffffffffff1673ffffffffffffffffffffffffffffffffffffffff1681526020019081526020015f205f8473ffffffffffffffffffffffffffffffffffffffff1673ffffffffffffffffffffffffffffffffffffffff1681526020019081526020015f205f6101000a81548160ff0219169083151502179055508173ffffffffffffffffffffffffffffffffffffffff168373ffffffffffffffffffffffffffffffffffffffff167f17307eab39ab6107e8899845ad3d59bd9653f200f220920489ca2b5937696c3183604051610da791906116e6565b60405180910390a3505050565b5f8373ffffffffffffffffffffffffffffffffffffffff163b1115610f60578273ffffffffffffffffffffffffffffffffffffffff1663150b7a02610df7610a0a565b8685856040518563ffffffff1660e01b8152600401610e199493929190611cc9565b6020604051808303815f875af1925050508015610e5457506040513d601f19601f82011682018060405250810190610e519190611d27565b60015b610ed5573d805f8114610e82576040519150601f19603f3d011682016040523d82523d5f602084013e610e87565b606091505b505f815103610ecd57836040517f64a0ae92000000000000000000000000000000000000000000000000000000008152600401610ec49190611823565b60405180910390fd5b805181602001fd5b63150b7a0260e01b7bffffffffffffffffffffffffffffffffffffffffffffffffffffffff1916817bffffffffffffffffffffffffffffffffffffffffffffffffffffffff191614610f5e57836040517f64a0ae92000000000000000000000000000000000000000000000000000000008152600401610f559190611823565b60405180910390fd5b505b50505050565b60605f6001610f7484611306565b0190505f8167ffffffffffffffff811115610f9257610f9161198f565b5b6040519080825280601f01601f191660200182016040528015610fc45781602001600182028036833780820191505090505b5090505f82602001820190505b600115611025578080600190039150507f3031323334353637383961626364656600000000000000000000000000000000600a86061a8153600a858161101a57611019611d52565b5b0494505f8503610fd1575b819350505050919050565b5f60025f8381526020019081526020015f205f9054906101000a900473ffffffffffffffffffffffffffffffffffffffff169050919050565b80806110a157505f73ffffffffffffffffffffffffffffffffffffffff168273ffffffffffffffffffffffffffffffffffffffff1614155b156111d3575f6110b08461094b565b90505f73ffffffffffffffffffffffffffffffffffffffff168373ffffffffffffffffffffffffffffffffffffffff161415801561111a57508273ffffffffffffffffffffffffffffffffffffffff168173ffffffffffffffffffffffffffffffffffffffff1614155b801561112d575061112b8184610854565b155b1561116f57826040517fa9fbf51f0000000000000000000000000000000000000000000000000000000081526004016111669190611823565b60405180910390fd5b81156111d157838573ffffffffffffffffffffffffffffffffffffffff168273ffffffffffffffffffffffffffffffffffffffff167f8c5be1e5ebec7d5bd14f71427d1e84f3dd0314c0f7b2291e5b200ac8c7c3b92560405160405180910390a45b505b8360045f8581526020019081526020015f205f6101000a81548173ffffffffffffffffffffffffffffffffffffffff021916908373ffffffffffffffffffffffffffffffffffffffff16021790555050505050565b611233838383611457565b6112e6575f73ffffffffffffffffffffffffffffffffffffffff168373ffffffffffffffffffffffffffffffffffffffff16036112a757806040517f7e27328900000000000000000000000000000000000000000000000000000000815260040161129e9190611622565b60405180910390fd5b81816040517f177e802f0000000000000000000000000000000000000000000000000000000081526004016112dd929190611d7f565b60405180910390fd5b505050565b6112f58383611517565b6113015f848484610db4565b505050565b5f805f90507a184f03e93ff9f4daa797ed6e38ed64bf6a1f0100000000000000008310611362577a184f03e93ff9f4daa797ed6e38ed64bf6a1f010000000000000000838161135857611357611d52565b5b0492506040810190505b6d04ee2d6d415b85acef8100000000831061139f576d04ee2d6d415b85acef8100000000838161139557611394611d52565b5b0492506020810190505b662386f26fc1000083106113ce57662386f26fc1000083816113c4576113c3611d52565b5b0492506010810190505b6305f5e10083106113f7576305f5e10083816113ed576113ec611d52565b5b0492506008810190505b612710831061141c57612710838161141257611411611d52565b5b0492506004810190505b6064831061143f576064838161143557611434611d52565b5b0492506002810190505b600a831061144e576001810190505b80915050919050565b5f8073ffffffffffffffffffffffffffffffffffffffff168373ffffffffffffffffffffffffffffffffffffffff161415801561150e57508273ffffffffffffffffffffffffffffffffffffffff168473ffffffffffffffffffffffffffffffffffffffff1614806114cf57506114ce8484610854565b5b8061150d57508273ffffffffffffffffffffffffffffffffffffffff166114f5836109d1565b73ffffffffffffffffffffffffffffffffffffffff16145b5b90509392505050565b5f73ffffffffffffffffffffffffffffffffffffffff168273ffffffffffffffffffffffffffffffffffffffff1603611587575f6040517f64a0ae9200000000000000000000000000000000000000000000000000000000815260040161157e9190611823565b60405180910390fd5b5f61159383835f610a23565b90505f73ffffffffffffffffffffffffffffffffffffffff168173ffffffffffffffffffffffffffffffffffffffff1614611605575f6040517f73c6ac6e0000000000000000000000000000000000000000000000000000000081526004016115fc9190611823565b60405180910390fd5b505050565b5f819050919050565b61161c8161160a565b82525050565b5f6020820190506116355f830184611613565b92915050565b5f604051905090565b5f80fd5b5f80fd5b5f7fffffffff0000000000000000000000000000000000000000000000000000000082169050919050565b6116808161164c565b811461168a575f80fd5b50565b5f8135905061169b81611677565b92915050565b5f602082840312156116b6576116b5611644565b5b5f6116c38482850161168d565b91505092915050565b5f8115159050919050565b6116e0816116cc565b82525050565b5f6020820190506116f95f8301846116d7565b92915050565b5f81519050919050565b5f82825260208201905092915050565b8281835e5f83830152505050565b5f601f19601f8301169050919050565b5f611741826116ff565b61174b8185611709565b935061175b818560208601611719565b61176481611727565b840191505092915050565b5f6020820190508181035f8301526117878184611737565b905092915050565b6117988161160a565b81146117a2575f80fd5b50565b5f813590506117b38161178f565b92915050565b5f602082840312156117ce576117cd611644565b5b5f6117db848285016117a5565b91505092915050565b5f73ffffffffffffffffffffffffffffffffffffffff82169050919050565b5f61180d826117e4565b9050919050565b61181d81611803565b82525050565b5f6020820190506118365f830184611814565b92915050565b61184581611803565b811461184f575f80fd5b50565b5f813590506118608161183c565b92915050565b5f806040838503121561187c5761187b611644565b5b5f61188985828601611852565b925050602061189a858286016117a5565b9150509250929050565b5f805f606084860312156118bb576118ba611644565b5b5f6118c886828701611852565b93505060206118d986828701611852565b92505060406118ea868287016117a5565b9150509250925092565b5f6020828403121561190957611908611644565b5b5f61191684828501611852565b91505092915050565b611928816116cc565b8114611932575f80fd5b50565b5f813590506119438161191f565b92915050565b5f806040838503121561195f5761195e611644565b5b5f61196c85828601611852565b925050602061197d85828601611935565b9150509250929050565b5f80fd5b5f80fd5b7f4e487b71000000000000000000000000000000000000000000000000000000005f52604160045260245ffd5b6119c582611727565b810181811067ffffffffffffffff821117156119e4576119e361198f565b5b80604052505050565b5f6119f661163b565b9050611a0282826119bc565b919050565b5f67ffffffffffffffff821115611a2157611a2061198f565b5b611a2a82611727565b9050602081019050919050565b828183375f83830152505050565b5f611a57611a5284611a07565b6119ed565b905082815260208101848484011115611a7357611a7261198b565b5b611a7e848285611a37565b509392505050565b5f82601f830112611a9a57611a99611987565b5b8135611aaa848260208601611a45565b91505092915050565b5f805f8060808587031215611acb57611aca611644565b5b5f611ad887828801611852565b9450506020611ae987828801611852565b9350506040611afa878288016117a5565b925050606085013567ffffffffffffffff811115611b1b57611b1a611648565b5b611b2787828801611a86565b91505092959194509250565b5f8060408385031215611b4957611b48611644565b5b5f611b5685828601611852565b9250506020611b6785828601611852565b9150509250929050565b7f4e487b71000000000000000000000000000000000000000000000000000000005f52602260045260245ffd5b5f6002820490506001821680611bb557607f821691505b602082108103611bc857611bc7611b71565b5b50919050565b5f606082019050611be15f830186611814565b611bee6020830185611613565b611bfb6040830184611814565b949350505050565b7f4e487b71000000000000000000000000000000000000000000000000000000005f52601160045260245ffd5b5f611c3a8261160a565b91507fffffffffffffffffffffffffffffffffffffffffffffffffffffffffffffffff8203611c6c57611c6b611c03565b5b600182019050919050565b5f81519050919050565b5f82825260208201905092915050565b5f611c9b82611c77565b611ca58185611c81565b9350611cb5818560208601611719565b611cbe81611727565b840191505092915050565b5f608082019050611cdc5f830187611814565b611ce96020830186611814565b611cf66040830185611613565b8181036060830152611d088184611c91565b905095945050505050565b5f81519050611d2181611677565b92915050565b5f60208284031215611d3c57611d3b611644565b5b5f611d4984828501611d13565b91505092915050565b7f4e487b71000000000000000000000000000000000000000000000000000000005f52601260045260245ffd5b5f604082019050611d925f830185611814565b611d9f6020830184611613565b939250505056fea26469706673582212205a13100b25eddaa34b6cce1fc989dbc3107e0de5a0d9a5c7bb6f2dbe0a08bca264736f6c634300081a0033",
  "immutableReferences": {},
  "source": "// SPDX-License-Identifier: UNLICENSED\npragma solidity ^0.8.10;\n\nimport \"@openzeppelin/contracts/token/ERC721/ERC721.sol\";\n//import \"@openzeppelin/contracts/utils/Counters.sol\";\n\ncontract NFT is ERC721 {\n\tuint256 public currentTokenId;\n\n\tconstructor() public ERC721(\"Certificate registry\", \"CFR\") {}\n\n\tfunction mintTo(address recipient) public payable returns (uint256) {\n\t\tuint256 newItemId = ++currentTokenId;\n\t\t_safeMint(recipient, newItemId);\n\t\treturn newItemId;\n\t}\n\n\tfunction tokenURI(uint256 id) public view virtual override returns (string memory) {\n\t\treturn Strings.toString(id);\n\t}\n}",
  "sourcePath": "C:\\Users\\xxr98\\Desktop\\6771\\COMP6453-Passport-ZKP\\contracts\\contracts\\NFT.sol",
  "compiler": {
    "name": "solc",
    "version": "0.8.26+commit.8a97fa7a.Emscripten.clang"
  },
  "schemaVersion": "3.4.16",
  "updatedAt": "2024-07-13T14:27:44.735Z",
  "networkType": "ethereum",
  "devdoc": {
    "errors": {
      "ERC721IncorrectOwner(address,uint256,address)": [
        {
          "details": "Indicates an error related to the ownership over a particular token. Used in transfers.",
          "params": {
            "owner": "Address of the current owner of a token.",
            "sender": "Address whose tokens are being transferred.",
            "tokenId": "Identifier number of a token."
          }
        }
      ],
      "ERC721InsufficientApproval(address,uint256)": [
        {
          "details": "Indicates a failure with the `operator`s approval. Used in transfers.",
          "params": {
            "operator": "Address that may be allowed to operate on tokens without being their owner.",
            "tokenId": "Identifier number of a token."
          }
        }
      ],
      "ERC721InvalidApprover(address)": [
        {
          "details": "Indicates a failure with the `approver` of a token to be approved. Used in approvals.",
          "params": {
            "approver": "Address initiating an approval operation."
          }
        }
      ],
      "ERC721InvalidOperator(address)": [
        {
          "details": "Indicates a failure with the `operator` to be approved. Used in approvals.",
          "params": {
            "operator": "Address that may be allowed to operate on tokens without being their owner."
          }
        }
      ],
      "ERC721InvalidOwner(address)": [
        {
          "details": "Indicates that an address can't be an owner. For example, `address(0)` is a forbidden owner in EIP-20. Used in balance queries.",
          "params": {
            "owner": "Address of the current owner of a token."
          }
        }
      ],
      "ERC721InvalidReceiver(address)": [
        {
          "details": "Indicates a failure with the token `receiver`. Used in transfers.",
          "params": {
            "receiver": "Address to which tokens are being transferred."
          }
        }
      ],
      "ERC721InvalidSender(address)": [
        {
          "details": "Indicates a failure with the token `sender`. Used in transfers.",
          "params": {
            "sender": "Address whose tokens are being transferred."
          }
        }
      ],
      "ERC721NonexistentToken(uint256)": [
        {
          "details": "Indicates a `tokenId` whose `owner` is the zero address.",
          "params": {
            "tokenId": "Identifier number of a token."
          }
        }
      ]
    },
    "events": {
      "Approval(address,address,uint256)": {
        "details": "Emitted when `owner` enables `approved` to manage the `tokenId` token."
      },
      "ApprovalForAll(address,address,bool)": {
        "details": "Emitted when `owner` enables or disables (`approved`) `operator` to manage all of its assets."
      },
      "Transfer(address,address,uint256)": {
        "details": "Emitted when `tokenId` token is transferred from `from` to `to`."
      }
    },
    "kind": "dev",
    "methods": {
      "approve(address,uint256)": {
        "details": "See {IERC721-approve}."
      },
      "balanceOf(address)": {
        "details": "See {IERC721-balanceOf}."
      },
      "getApproved(uint256)": {
        "details": "See {IERC721-getApproved}."
      },
      "isApprovedForAll(address,address)": {
        "details": "See {IERC721-isApprovedForAll}."
      },
      "name()": {
        "details": "See {IERC721Metadata-name}."
      },
      "ownerOf(uint256)": {
        "details": "See {IERC721-ownerOf}."
      },
      "safeTransferFrom(address,address,uint256)": {
        "details": "See {IERC721-safeTransferFrom}."
      },
      "safeTransferFrom(address,address,uint256,bytes)": {
        "details": "See {IERC721-safeTransferFrom}."
      },
      "setApprovalForAll(address,bool)": {
        "details": "See {IERC721-setApprovalForAll}."
      },
      "supportsInterface(bytes4)": {
        "details": "See {IERC165-supportsInterface}."
      },
      "symbol()": {
        "details": "See {IERC721Metadata-symbol}."
      },
      "transferFrom(address,address,uint256)": {
        "details": "See {IERC721-transferFrom}."
      }
    },
    "version": 1
  },
  "userdoc": {
    "kind": "user",
    "methods": {},
    "version": 1
  }
}